{
  "contractName": "EstateRegistry",
  "abi": [
    {
      "constant": true,
      "inputs": [
        {
          "name": "_interfaceId",
          "type": "bytes4"
        }
      ],
      "name": "supportsInterface",
      "outputs": [
        {
          "name": "",
          "type": "bool"
        }
      ],
      "payable": false,
      "stateMutability": "view",
      "type": "function"
    },
    {
      "constant": true,
      "inputs": [],
      "name": "name",
      "outputs": [
        {
          "name": "",
          "type": "string"
        }
      ],
      "payable": false,
      "stateMutability": "view",
      "type": "function"
    },
    {
      "constant": true,
      "inputs": [
        {
          "name": "_tokenId",
          "type": "uint256"
        }
      ],
      "name": "getApproved",
      "outputs": [
        {
          "name": "",
          "type": "address"
        }
      ],
      "payable": false,
      "stateMutability": "view",
      "type": "function"
    },
    {
      "constant": false,
      "inputs": [
        {
          "name": "_to",
          "type": "address"
        },
        {
          "name": "_tokenId",
          "type": "uint256"
        }
      ],
      "name": "approve",
      "outputs": [],
      "payable": false,
      "stateMutability": "nonpayable",
      "type": "function"
    },
    {
      "constant": true,
      "inputs": [
        {
          "name": "",
          "type": "uint256"
        }
      ],
      "name": "landIdEstate",
      "outputs": [
        {
          "name": "",
          "type": "uint256"
        }
      ],
      "payable": false,
      "stateMutability": "view",
      "type": "function"
    },
    {
      "constant": true,
      "inputs": [],
      "name": "totalSupply",
      "outputs": [
        {
          "name": "",
          "type": "uint256"
        }
      ],
      "payable": false,
      "stateMutability": "view",
      "type": "function"
    },
    {
      "constant": true,
      "inputs": [
        {
          "name": "_owner",
          "type": "address"
        },
        {
          "name": "_index",
          "type": "uint256"
        }
      ],
      "name": "tokenOfOwnerByIndex",
      "outputs": [
        {
          "name": "",
          "type": "uint256"
        }
      ],
      "payable": false,
      "stateMutability": "view",
      "type": "function"
    },
    {
      "constant": true,
      "inputs": [
        {
          "name": "",
          "type": "uint256"
        },
        {
          "name": "",
          "type": "uint256"
        }
      ],
      "name": "estateLandIds",
      "outputs": [
        {
          "name": "",
          "type": "uint256"
        }
      ],
      "payable": false,
      "stateMutability": "view",
      "type": "function"
    },
    {
      "constant": true,
      "inputs": [
        {
          "name": "_tokenId",
          "type": "uint256"
        }
      ],
      "name": "exists",
      "outputs": [
        {
          "name": "",
          "type": "bool"
        }
      ],
      "payable": false,
      "stateMutability": "view",
      "type": "function"
    },
    {
      "constant": true,
      "inputs": [
        {
          "name": "_index",
          "type": "uint256"
        }
      ],
      "name": "tokenByIndex",
      "outputs": [
        {
          "name": "",
          "type": "uint256"
        }
      ],
      "payable": false,
      "stateMutability": "view",
      "type": "function"
    },
    {
      "constant": true,
      "inputs": [
        {
          "name": "_tokenId",
          "type": "uint256"
        }
      ],
      "name": "ownerOf",
      "outputs": [
        {
          "name": "",
          "type": "address"
        }
      ],
      "payable": false,
      "stateMutability": "view",
      "type": "function"
    },
    {
      "constant": true,
      "inputs": [
        {
          "name": "_owner",
          "type": "address"
        }
      ],
      "name": "balanceOf",
      "outputs": [
        {
          "name": "",
          "type": "uint256"
        }
      ],
      "payable": false,
      "stateMutability": "view",
      "type": "function"
    },
    {
      "constant": true,
      "inputs": [],
      "name": "registry",
      "outputs": [
        {
          "name": "",
          "type": "address"
        }
      ],
      "payable": false,
      "stateMutability": "view",
      "type": "function"
    },
    {
      "constant": true,
      "inputs": [],
      "name": "owner",
      "outputs": [
        {
          "name": "",
          "type": "address"
        }
      ],
      "payable": false,
      "stateMutability": "view",
      "type": "function"
    },
    {
      "constant": true,
      "inputs": [],
      "name": "symbol",
      "outputs": [
        {
          "name": "",
          "type": "string"
        }
      ],
      "payable": false,
      "stateMutability": "view",
      "type": "function"
    },
    {
      "constant": true,
      "inputs": [
        {
          "name": "",
          "type": "uint256"
        }
      ],
      "name": "updateOperator",
      "outputs": [
        {
          "name": "",
          "type": "address"
        }
      ],
      "payable": false,
      "stateMutability": "view",
      "type": "function"
    },
    {
      "constant": true,
      "inputs": [
        {
          "name": "",
          "type": "uint256"
        },
        {
          "name": "",
          "type": "uint256"
        }
      ],
      "name": "estateLandIndex",
      "outputs": [
        {
          "name": "",
          "type": "uint256"
        }
      ],
      "payable": false,
      "stateMutability": "view",
      "type": "function"
    },
    {
      "constant": false,
      "inputs": [
        {
          "name": "_to",
          "type": "address"
        },
        {
          "name": "_approved",
          "type": "bool"
        }
      ],
      "name": "setApprovalForAll",
      "outputs": [],
      "payable": false,
      "stateMutability": "nonpayable",
      "type": "function"
    },
    {
      "constant": true,
      "inputs": [
        {
          "name": "contractName",
          "type": "string"
        },
        {
          "name": "migrationId",
          "type": "string"
        }
      ],
      "name": "isMigrated",
      "outputs": [
        {
          "name": "",
          "type": "bool"
        }
      ],
      "payable": false,
      "stateMutability": "view",
      "type": "function"
    },
    {
      "constant": true,
      "inputs": [
        {
          "name": "_tokenId",
          "type": "uint256"
        }
      ],
      "name": "tokenURI",
      "outputs": [
        {
          "name": "",
          "type": "string"
        }
      ],
      "payable": false,
      "stateMutability": "view",
      "type": "function"
    },
    {
      "constant": true,
      "inputs": [
        {
          "name": "_owner",
          "type": "address"
        },
        {
          "name": "_operator",
          "type": "address"
        }
      ],
      "name": "isApprovedForAll",
      "outputs": [
        {
          "name": "",
          "type": "bool"
        }
      ],
      "payable": false,
      "stateMutability": "view",
      "type": "function"
    },
    {
      "constant": false,
      "inputs": [
        {
          "name": "newOwner",
          "type": "address"
        }
      ],
      "name": "transferOwnership",
      "outputs": [],
      "payable": false,
      "stateMutability": "nonpayable",
      "type": "function"
    },
    {
      "anonymous": false,
      "inputs": [
        {
          "indexed": true,
          "name": "previousOwner",
          "type": "address"
        },
        {
          "indexed": true,
          "name": "newOwner",
          "type": "address"
        }
      ],
      "name": "OwnershipTransferred",
      "type": "event"
    },
    {
      "anonymous": false,
      "inputs": [
        {
          "indexed": true,
          "name": "_from",
          "type": "address"
        },
        {
          "indexed": true,
          "name": "_to",
          "type": "address"
        },
        {
          "indexed": true,
          "name": "_tokenId",
          "type": "uint256"
        }
      ],
      "name": "Transfer",
      "type": "event"
    },
    {
      "anonymous": false,
      "inputs": [
        {
          "indexed": true,
          "name": "_owner",
          "type": "address"
        },
        {
          "indexed": true,
          "name": "_approved",
          "type": "address"
        },
        {
          "indexed": true,
          "name": "_tokenId",
          "type": "uint256"
        }
      ],
      "name": "Approval",
      "type": "event"
    },
    {
      "anonymous": false,
      "inputs": [
        {
          "indexed": true,
          "name": "_owner",
          "type": "address"
        },
        {
          "indexed": true,
          "name": "_operator",
          "type": "address"
        },
        {
          "indexed": false,
          "name": "_approved",
          "type": "bool"
        }
      ],
      "name": "ApprovalForAll",
      "type": "event"
    },
    {
      "anonymous": false,
      "inputs": [
        {
          "indexed": true,
          "name": "_owner",
          "type": "address"
        },
        {
          "indexed": true,
          "name": "_estateId",
          "type": "uint256"
        },
        {
          "indexed": false,
          "name": "_data",
          "type": "string"
        }
      ],
      "name": "CreateEstate",
      "type": "event"
    },
    {
      "anonymous": false,
      "inputs": [
        {
          "indexed": true,
          "name": "_estateId",
          "type": "uint256"
        },
        {
          "indexed": true,
          "name": "_landId",
          "type": "uint256"
        }
      ],
      "name": "AddLand",
      "type": "event"
    },
    {
      "anonymous": false,
      "inputs": [
        {
          "indexed": true,
          "name": "_estateId",
          "type": "uint256"
        },
        {
          "indexed": true,
          "name": "_landId",
          "type": "uint256"
        },
        {
          "indexed": true,
          "name": "_destinatary",
          "type": "address"
        }
      ],
      "name": "RemoveLand",
      "type": "event"
    },
    {
      "anonymous": false,
      "inputs": [
        {
          "indexed": true,
          "name": "_assetId",
          "type": "uint256"
        },
        {
          "indexed": true,
          "name": "_holder",
          "type": "address"
        },
        {
          "indexed": true,
          "name": "_operator",
          "type": "address"
        },
        {
          "indexed": false,
          "name": "_data",
          "type": "string"
        }
      ],
      "name": "Update",
      "type": "event"
    },
    {
      "anonymous": false,
      "inputs": [
        {
          "indexed": true,
          "name": "_estateId",
          "type": "uint256"
        },
        {
          "indexed": true,
          "name": "_operator",
          "type": "address"
        }
      ],
      "name": "UpdateOperator",
      "type": "event"
    },
    {
      "anonymous": false,
      "inputs": [
        {
          "indexed": true,
          "name": "_registry",
          "type": "address"
        }
      ],
      "name": "SetLANDRegistry",
      "type": "event"
    },
    {
      "anonymous": false,
      "inputs": [
        {
          "indexed": false,
          "name": "contractName",
          "type": "string"
        },
        {
          "indexed": false,
          "name": "migrationId",
          "type": "string"
        }
      ],
      "name": "Migrated",
      "type": "event"
    },
    {
      "constant": false,
      "inputs": [
        {
          "name": "to",
          "type": "address"
        },
        {
          "name": "metadata",
          "type": "string"
        }
      ],
      "name": "mint",
      "outputs": [
        {
          "name": "",
          "type": "uint256"
        }
      ],
      "payable": false,
      "stateMutability": "nonpayable",
      "type": "function"
    },
    {
      "constant": false,
      "inputs": [
        {
          "name": "estateId",
          "type": "uint256"
        },
        {
          "name": "landId",
          "type": "uint256"
        },
        {
          "name": "destinatary",
          "type": "address"
        }
      ],
      "name": "transferLand",
      "outputs": [],
      "payable": false,
      "stateMutability": "nonpayable",
      "type": "function"
    },
    {
      "constant": false,
      "inputs": [
        {
          "name": "estateId",
          "type": "uint256"
        },
        {
          "name": "landIds",
          "type": "uint256[]"
        },
        {
          "name": "destinatary",
          "type": "address"
        }
      ],
      "name": "transferManyLands",
      "outputs": [],
      "payable": false,
      "stateMutability": "nonpayable",
      "type": "function"
    },
    {
      "constant": true,
      "inputs": [
        {
          "name": "landId",
          "type": "uint256"
        }
      ],
      "name": "getLandEstateId",
      "outputs": [
        {
          "name": "",
          "type": "uint256"
        }
      ],
      "payable": false,
      "stateMutability": "view",
      "type": "function"
    },
    {
      "constant": false,
      "inputs": [
        {
          "name": "_registry",
          "type": "address"
        }
      ],
      "name": "setLANDRegistry",
      "outputs": [],
      "payable": false,
      "stateMutability": "nonpayable",
      "type": "function"
    },
    {
      "constant": false,
      "inputs": [],
      "name": "ping",
      "outputs": [],
      "payable": false,
      "stateMutability": "nonpayable",
      "type": "function"
    },
    {
      "constant": true,
      "inputs": [
        {
          "name": "estateId",
          "type": "uint256"
        }
      ],
      "name": "getEstateSize",
      "outputs": [
        {
          "name": "",
          "type": "uint256"
        }
      ],
      "payable": false,
      "stateMutability": "view",
      "type": "function"
    },
    {
      "constant": false,
      "inputs": [
        {
          "name": "estateId",
          "type": "uint256"
        },
        {
          "name": "metadata",
          "type": "string"
        }
      ],
      "name": "updateMetadata",
      "outputs": [],
      "payable": false,
      "stateMutability": "nonpayable",
      "type": "function"
    },
    {
      "constant": true,
      "inputs": [
        {
          "name": "estateId",
          "type": "uint256"
        }
      ],
      "name": "getMetadata",
      "outputs": [
        {
          "name": "",
          "type": "string"
        }
      ],
      "payable": false,
      "stateMutability": "view",
      "type": "function"
    },
    {
      "constant": true,
      "inputs": [
        {
          "name": "operator",
          "type": "address"
        },
        {
          "name": "estateId",
          "type": "uint256"
        }
      ],
      "name": "isUpdateAuthorized",
      "outputs": [
        {
          "name": "",
          "type": "bool"
        }
      ],
      "payable": false,
      "stateMutability": "view",
      "type": "function"
    },
    {
      "constant": false,
      "inputs": [
        {
          "name": "estateId",
          "type": "uint256"
        },
        {
          "name": "operator",
          "type": "address"
        }
      ],
      "name": "setUpdateOperator",
      "outputs": [],
      "payable": false,
      "stateMutability": "nonpayable",
      "type": "function"
    },
    {
      "constant": false,
      "inputs": [
        {
          "name": "_name",
          "type": "string"
        },
        {
          "name": "_symbol",
          "type": "string"
        },
        {
          "name": "_registry",
          "type": "address"
        }
      ],
      "name": "initialize",
      "outputs": [],
      "payable": false,
      "stateMutability": "nonpayable",
      "type": "function"
    },
    {
      "constant": false,
      "inputs": [],
      "name": "initialize",
      "outputs": [],
      "payable": false,
      "stateMutability": "nonpayable",
      "type": "function"
    },
    {
      "constant": false,
      "inputs": [
        {
          "name": "_operator",
          "type": "address"
        },
        {
          "name": "_from",
          "type": "address"
        },
        {
          "name": "_tokenId",
          "type": "uint256"
        },
        {
          "name": "_data",
          "type": "bytes"
        }
      ],
      "name": "onERC721Received",
      "outputs": [
        {
          "name": "",
          "type": "bytes4"
        }
      ],
      "payable": false,
      "stateMutability": "nonpayable",
      "type": "function"
    },
    {
      "constant": true,
      "inputs": [
        {
          "name": "estateId",
          "type": "uint256"
        }
      ],
      "name": "getFingerprint",
      "outputs": [
        {
          "name": "result",
          "type": "bytes32"
        }
      ],
      "payable": false,
      "stateMutability": "view",
      "type": "function"
    },
    {
      "constant": true,
      "inputs": [
        {
          "name": "estateId",
          "type": "uint256"
        },
        {
          "name": "fingerprint",
          "type": "bytes"
        }
      ],
      "name": "verifyFingerprint",
      "outputs": [
        {
          "name": "",
          "type": "bool"
        }
      ],
      "payable": false,
      "stateMutability": "view",
      "type": "function"
    },
    {
      "constant": false,
      "inputs": [
        {
          "name": "from",
          "type": "address"
        },
        {
          "name": "to",
          "type": "address"
        },
        {
          "name": "estateIds",
          "type": "uint256[]"
        }
      ],
      "name": "safeTransferManyFrom",
      "outputs": [],
      "payable": false,
      "stateMutability": "nonpayable",
      "type": "function"
    },
    {
      "constant": false,
      "inputs": [
        {
          "name": "from",
          "type": "address"
        },
        {
          "name": "to",
          "type": "address"
        },
        {
          "name": "estateIds",
          "type": "uint256[]"
        },
        {
          "name": "data",
          "type": "bytes"
        }
      ],
      "name": "safeTransferManyFrom",
      "outputs": [],
      "payable": false,
      "stateMutability": "nonpayable",
      "type": "function"
    },
    {
      "constant": false,
      "inputs": [
        {
          "name": "estateId",
          "type": "uint256"
        },
        {
          "name": "landId",
          "type": "uint256"
        },
        {
          "name": "data",
          "type": "string"
        }
      ],
      "name": "updateLandData",
      "outputs": [],
      "payable": false,
      "stateMutability": "nonpayable",
      "type": "function"
    },
    {
      "constant": false,
      "inputs": [
        {
          "name": "estateId",
          "type": "uint256"
        },
        {
          "name": "landIds",
          "type": "uint256[]"
        },
        {
          "name": "data",
          "type": "string"
        }
      ],
      "name": "updateManyLandData",
      "outputs": [],
      "payable": false,
      "stateMutability": "nonpayable",
      "type": "function"
    },
    {
      "constant": false,
      "inputs": [
        {
          "name": "_from",
          "type": "address"
        },
        {
          "name": "_to",
          "type": "address"
        },
        {
          "name": "_tokenId",
          "type": "uint256"
        }
      ],
      "name": "transferFrom",
      "outputs": [],
      "payable": false,
      "stateMutability": "nonpayable",
      "type": "function"
    },
    {
      "constant": false,
      "inputs": [
        {
          "name": "_from",
          "type": "address"
        },
        {
          "name": "_to",
          "type": "address"
        },
        {
          "name": "_tokenId",
          "type": "uint256"
        }
      ],
      "name": "safeTransferFrom",
      "outputs": [],
      "payable": false,
      "stateMutability": "nonpayable",
      "type": "function"
    },
    {
      "constant": false,
      "inputs": [
        {
          "name": "_from",
          "type": "address"
        },
        {
          "name": "_to",
          "type": "address"
        },
        {
          "name": "_tokenId",
          "type": "uint256"
        },
        {
          "name": "_data",
          "type": "bytes"
        }
      ],
      "name": "safeTransferFrom",
      "outputs": [],
      "payable": false,
      "stateMutability": "nonpayable",
      "type": "function"
    }
  ],
  "bytecode": "0x608060405234801561001057600080fd5b50613f8d806100206000396000f30060806040526004361061023a5763ffffffff7c010000000000000000000000000000000000000000000000000000000060003504166301ffc9a7811461023f57806306fdde0314610275578063077f224a146102ff578063081812fc146103a3578063095ea7b3146103d75780630a354fce146103fb578063150b7a0214610425578063159a6475146104b157806318160ddd146104c957806323b872dd146104de57806328b34ef6146105085780632f745c59146105685780633970bfd31461058c57806340807049146105a7578063426a0af3146105d757806342842e0e1461066f5780634cd88b76146106995780634f558e79146107305780634f6ccce714610748578063535a920c1461076057806353c8388e146107815780635c36b186146107a55780636352211e146107ba57806365937ab9146107d257806370a08231146107f657806373b913fa146108175780637b103999146108825780638129fc1c146108975780638da5cb5b146108ac5780638f9f4b63146108c157806395d89b411461091f5780639d40b850146109345780639f813b1b1461094c578063a22cb46514610967578063a506e5dc1461098d578063a574cea4146109b4578063b0b02c60146109cc578063b88d4fde146109f0578063bb96913214610a5f578063c0bac1a814610a77578063c4d66de814610b0e578063c87b56dd14610b2f578063d0def52114610b47578063d93eeb5c14610b74578063e985e9c514610c1d578063f2fde38b14610c44578063f4a4344814610c65575b600080fd5b34801561024b57600080fd5b50610261600160e060020a031960043516610c7d565b604080519115158252519081900360200190f35b34801561028157600080fd5b5061028a610c8e565b6040805160208082528351818301528351919283929083019185019080838360005b838110156102c45781810151838201526020016102ac565b50505050905090810190601f1680156102f15780820380516001836020036101000a031916815260200191505b509250505060405180910390f35b34801561030b57600080fd5b506040805160206004803580820135601f81018490048402850184019095528484526103a194369492936024939284019190819084018382808284375050604080516020601f89358b018035918201839004830284018301909452808352979a99988101979196509182019450925082915084018382808284375094975050509235600160a060020a03169350610d2592505050565b005b3480156103af57600080fd5b506103bb60043561112c565b60408051600160a060020a039092168252519081900360200190f35b3480156103e357600080fd5b506103a1600160a060020a0360043516602435611147565b34801561040757600080fd5b506104136004356111f0565b60408051918252519081900360200190f35b34801561043157600080fd5b50604080516020601f60643560048181013592830184900484028501840190955281845261049494600160a060020a0381358116956024803590921695604435953695608494019181908401838280828437509497506112029650505050505050565b60408051600160e060020a03199092168252519081900360200190f35b3480156104bd57600080fd5b506104136004356112d1565b3480156104d557600080fd5b5061041361144b565b3480156104ea57600080fd5b506103a1600160a060020a0360043581169060243516604435611451565b34801561051457600080fd5b50604080516020600460443581810135601f81018490048402850184019095528484526103a194823594602480359536959460649492019190819084018382808284375094975061146c9650505050505050565b34801561057457600080fd5b50610413600160a060020a0360043516602435611477565b34801561059857600080fd5b506104136004356024356114c4565b3480156105b357600080fd5b506103a1600480359060248035908101910135600160a060020a03604435166114f4565b3480156105e357600080fd5b506040805160206004602480358281013584810280870186019097528086526103a19684359636966044959194909101929182918501908490808284375050604080516020601f89358b018035918201839004830284018301909452808352979a9998810197919650918201945092508291508401838280828437509497506115969650505050505050565b34801561067b57600080fd5b506103a1600160a060020a03600435811690602435166044356115d4565b3480156106a557600080fd5b506040805160206004803580820135601f81018490048402850184019095528484526103a194369492936024939284019190819084018382808284375050604080516020601f89358b018035918201839004830284018301909452808352979a9998810197919650918201945092508291508401838280828437509497506115ea9650505050505050565b34801561073c57600080fd5b50610261600435611961565b34801561075457600080fd5b5061041360043561197e565b34801561076c57600080fd5b506103a1600160a060020a03600435166119b3565b34801561078d57600080fd5b506103a1600480359060248035908101910135611b2e565b3480156107b157600080fd5b506103a1611c33565b3480156107c657600080fd5b506103bb600435611cb9565b3480156107de57600080fd5b50610261600160a060020a0360043516602435611cdd565b34801561080257600080fd5b50610413600160a060020a0360043516611cf0565b34801561082357600080fd5b5060408051602060046044358181013583810280860185019096528085526103a1958335600160a060020a039081169660248035909216963696956064959294930192829185019084908082843750949750611d239650505050505050565b34801561088e57600080fd5b506103bb611d3f565b3480156108a357600080fd5b506103a1611d4e565b3480156108b857600080fd5b506103bb61209b565b3480156108cd57600080fd5b5060408051602060046024803582810135601f81018590048502860185019096528585526102619583359536956044949193909101919081908401838280828437509497506120aa9650505050505050565b34801561092b57600080fd5b5061028a6120c6565b34801561094057600080fd5b506103bb600435612127565b34801561095857600080fd5b50610413600435602435612142565b34801561097357600080fd5b506103a1600160a060020a0360043516602435151561215f565b34801561099957600080fd5b506103a1600435602435600160a060020a03604435166121e3565b3480156109c057600080fd5b5061028a60043561224c565b3480156109d857600080fd5b506103a1600435600160a060020a03602435166122ed565b3480156109fc57600080fd5b50604080516020601f6064356004818101359283018490048402850184019095528184526103a194600160a060020a0381358116956024803590921695604435953695608494019181908401838280828437509497506123a59650505050505050565b348015610a6b57600080fd5b506104136004356123bc565b348015610a8357600080fd5b506040805160206004803580820135601f810184900484028501840190955284845261026194369492936024939284019190819084018382808284375050604080516020601f89358b018035918201839004830284018301909452808352979a9998810197919650918201945092508291508401838280828437509497506123ce9650505050505050565b348015610b1a57600080fd5b506103a1600160a060020a0360043516612495565b348015610b3b57600080fd5b5061028a600435612801565b348015610b5357600080fd5b5061041360048035600160a060020a0316906024803590810191013561287f565b348015610b8057600080fd5b5060408051602060046044358181013583810280860185019096528085526103a1958335600160a060020a03908116966024803590921696369695606495929493019282918501908490808284375050604080516020601f89358b018035918201839004830284018301909452808352979a99988101979196509182019450925082915084018382808284375094975061294c9650505050505050565b348015610c2957600080fd5b50610261600160a060020a0360043581169060243516612983565b348015610c5057600080fd5b506103a1600160a060020a03600435166129b1565b348015610c7157600080fd5b50610413600435612a39565b6000610c8882612a4b565b92915050565b60058054604080516020601f6002600019610100600188161502019095169490940493840181900481028201810190925282815260609390929091830182828015610d1a5780601f10610cef57610100808354040283529160200191610d1a565b820191906000526020600020905b815481529060010190602001808311610cfd57829003601f168201915b505050505090505b90565b6040805190810160405280600e81526020017f45737461746552656769737472790000000000000000000000000000000000008152506040805190810160405280600581526020017f302e302e32000000000000000000000000000000000000000000000000000000815250610dbe826040805190810160405280600b8152602001600080516020613f22833981519152815250612aec565b610dc88282612aec565b600160a060020a0383161515610e4e576040805160e560020a62461bcd02815260206004820152602660248201527f5468652072656769737472792073686f756c6420626520612076616c6964206160448201527f6464726573730000000000000000000000000000000000000000000000000000606482015290519081900360840190fd5b610e5885856115ea565b610e6133612495565b600d8054600160a060020a031916600160a060020a038516179055604080518181528351918101919091528251600080516020613f028339815191529184918491908190602080830191606084019187019080838360005b83811015610ed1578181015183820152602001610eb9565b50505050905090810190601f168015610efe5780820380516001836020036101000a031916815260200191505b50838103825284518152845160209182019186019080838360005b83811015610f31578181015183820152602001610f19565b50505050905090810190601f168015610f5e5780820380516001836020036101000a031916815260200191505b5094505050505060405180910390a160016000836040518082805190602001908083835b60208310610fa15780518252601f199092019160209182019101610f82565b51815160209384036101000a6000190180199092169116179052920194855250604051938490038101842086519094879450925082918401908083835b60208310610ffd5780518252601f199092019160209182019101610fde565b51815160209384036101000a60001901801990921691161790529201948552506040519384900381018420805460ff19169515159590951790945550508351600192600092869290918291908401908083835b6020831061106f5780518252601f199092019160209182019101611050565b51815160209384036101000a60001901801990921691161790529201948552506040805194859003820185208582018252600b808752600080516020613f2283398151915293870193845291519095945092508291908083835b602083106110e85780518252601f1990920191602091820191016110c9565b51815160209384036101000a60001901801990921691161790529201948552506040519384900301909220805460ff19169315159390931790925550505050505050565b600090815260026020526040902054600160a060020a031690565b600061115282611cb9565b9050600160a060020a03838116908216141561116d57600080fd5b33600160a060020a038216148061118957506111898133612983565b151561119457600080fd5b6000828152600260205260408082208054600160a060020a031916600160a060020a0387811691821790925591518593918516917f8c5be1e5ebec7d5bd14f71427d1e84f3dd0314c0f7b2291e5b200ac8c7c3b92591a4505050565b600f6020526000908152604090205481565b600d546000908190600160a060020a0316331461128f576040805160e560020a62461bcd02815260206004820152602960248201527f4f6e6c79207468652072656769737472792063616e206d616b6520746869732060448201527f6f7065726174696f6e0000000000000000000000000000000000000000000000606482015290519081900360840190fd5b61129883612b75565b90506112a48185612b80565b7f150b7a020000000000000000000000000000000000000000000000000000000091505b50949350505050565b60008060008360405160200180807f65737461746549640000000000000000000000000000000000000000000000008152506008018281526020019150506040516020818303038152906040526040518082805190602001908083835b6020831061134d5780518252601f19909201916020918201910161132e565b51815160209384036101000a6000190180199092169116179052604080519290940182900390912060008a8152600e909252928120549297509195509093505050505b81811015611444576000848152600e602052604090208054829081106113b257fe5b9060005260206000200154604051602001808281526020019150506040516020818303038152906040526040518082805190602001908083835b6020831061140b5780518252601f1990920191602091820191016113ec565b5181516020939093036101000a600019018019909116921691909117905260405192018290039091209590951894505050600101611390565b5050919050565b60095490565b61145c8160006122ed565b611467838383612df4565b505050565b611467838383612ee1565b600061148283611cf0565b821061148d57600080fd5b600160a060020a03831660009081526007602052604090208054839081106114b157fe5b9060005260206000200154905092915050565b600e602052816000526040600020818154811015156114df57fe5b90600052602060002001600091509150505481565b600080856115023382613167565b1515611555576040805160e560020a62461bcd0281526020600482015260236024820152600080516020613f42833981519152604482015260e960020a623332b902606482015290519081900360840190fd5b849250600091505b8282101561158d576115828787878581811061157557fe5b90506020020135866131be565b60019091019061155d565b50505050505050565b815160005b818110156115cd576115c58585838151811015156115b557fe5b9060200190602002015185612ee1565b60010161159b565b5050505050565b6115df8160006122ed565b611467838383613486565b6040805190810160405280600b81526020017f455243373231546f6b656e0000000000000000000000000000000000000000008152506040805190810160405280600581526020017f312e392e30000000000000000000000000000000000000000000000000000000815250611683826040805190810160405280600b8152602001600080516020613f22833981519152815250612aec565b61168d8282612aec565b83516116a0906005906020870190613e49565b5082516116b4906006906020860190613e49565b50600080516020613f028339815191528282604051808060200180602001838103835285818151815260200191508051906020019080838360005b838110156117075781810151838201526020016116ef565b50505050905090810190601f1680156117345780820380516001836020036101000a031916815260200191505b50838103825284518152845160209182019186019080838360005b8381101561176757818101518382015260200161174f565b50505050905090810190601f1680156117945780820380516001836020036101000a031916815260200191505b5094505050505060405180910390a160016000836040518082805190602001908083835b602083106117d75780518252601f1990920191602091820191016117b8565b51815160209384036101000a6000190180199092169116179052920194855250604051938490038101842086519094879450925082918401908083835b602083106118335780518252601f199092019160209182019101611814565b51815160209384036101000a60001901801990921691161790529201948552506040519384900381018420805460ff19169515159590951790945550508351600192600092869290918291908401908083835b602083106118a55780518252601f199092019160209182019101611886565b51815160209384036101000a60001901801990921691161790529201948552506040805194859003820185208582018252600b808752600080516020613f2283398151915293870193845291519095945092508291908083835b6020831061191e5780518252601f1990920191602091820191016118ff565b51815160209384036101000a60001901801990921691161790529201948552506040519384900301909220805460ff191693151593909317909255505050505050565b600090815260016020526040902054600160a060020a0316151590565b600061198861144b565b821061199357600080fd5b60098054839081106119a157fe5b90600052602060002001549050919050565b600c54600160a060020a031633146119ca57600080fd5b6119dc81600160a060020a0316613500565b1515611a58576040805160e560020a62461bcd02815260206004820152602e60248201527f546865204c414e4420726567697374727920616464726573732073686f756c6460448201527f206265206120636f6e7472616374000000000000000000000000000000000000606482015290519081900360840190fd5b600160a060020a0381161515611ade576040805160e560020a62461bcd02815260206004820152602960248201527f546865204c414e4420726567697374727920616464726573732073686f756c6460448201527f2062652076616c69640000000000000000000000000000000000000000000000606482015290519081900360840190fd5b600d8054600160a060020a031916600160a060020a0383811691909117918290556040519116907f2e88792af6f2248ed486ffffc86edf9bc197596990f7b406d5f867a1dd930ba590600090a250565b82611b393382613508565b1515611b8f576040805160e560020a62461bcd02815260206004820152601160248201527f556e617574686f72697a65642075736572000000000000000000000000000000604482015290519081900360640190fd5b611bc98484848080601f0160208091040260200160405190810160405280939291908181526020018383808284375061353b945050505050565b33611bd385611cb9565b600160a060020a0316857f47c705b9219229ad762fca605f08fb024a3415d0ae78af5d319820c72e51041486866040518080602001828103825284848281815260200192508082843760405192018290039550909350505050a450505050565b600d60009054906101000a9004600160a060020a0316600160a060020a0316635c36b1866040518163ffffffff167c0100000000000000000000000000000000000000000000000000000000028152600401600060405180830381600087803b158015611c9f57600080fd5b505af1158015611cb3573d6000803e3d6000fd5b50505050565b600081815260016020526040812054600160a060020a0316801515610c8857600080fd5b6000611ce98383613508565b9392505050565b6000600160a060020a0382161515611d0757600080fd5b50600160a060020a031660009081526003602052604090205490565b611467838383602060405190810160405280600081525061294c565b600d54600160a060020a031681565b6040805190810160405280600a81526020017f4d696772617461626c65000000000000000000000000000000000000000000008152506040805190810160405280600581526020017f312e322e31000000000000000000000000000000000000000000000000000000815250611de7826040805190810160405280600b8152602001600080516020613f22833981519152815250612aec565b611df18282612aec565b600080516020613f028339815191528282604051808060200180602001838103835285818151815260200191508051906020019080838360005b83811015611e43578181015183820152602001611e2b565b50505050905090810190601f168015611e705780820380516001836020036101000a031916815260200191505b50838103825284518152845160209182019186019080838360005b83811015611ea3578181015183820152602001611e8b565b50505050905090810190601f168015611ed05780820380516001836020036101000a031916815260200191505b5094505050505060405180910390a160016000836040518082805190602001908083835b60208310611f135780518252601f199092019160209182019101611ef4565b51815160209384036101000a6000190180199092169116179052920194855250604051938490038101842086519094879450925082918401908083835b60208310611f6f5780518252601f199092019160209182019101611f50565b51815160209384036101000a60001901801990921691161790529201948552506040519384900381018420805460ff19169515159590951790945550508351600192600092869290918291908401908083835b60208310611fe15780518252601f199092019160209182019101611fc2565b51815160209384036101000a60001901801990921691161790529201948552506040805194859003820185208582018252600b808752600080516020613f2283398151915293870193845291519095945092508291908083835b6020831061205a5780518252601f19909201916020918201910161203b565b51815160209384036101000a60001901801990921691161790529201948552506040519384900301909220805460ff19169315159390931790925550505050565b600c54600160a060020a031681565b60006120b58261355a565b6120be846112d1565b149392505050565b60068054604080516020601f6002600019610100600188161502019095169490940493840181900481028201810190925282815260609390929091830182828015610d1a5780601f10610cef57610100808354040283529160200191610d1a565b601260205260009081526040902054600160a060020a031681565b601060209081526000928352604080842090915290825290205481565b600160a060020a03821633141561217557600080fd5b336000818152600460209081526040808320600160a060020a03871680855290835292819020805460ff1916861515908117909155815190815290519293927f17307eab39ab6107e8899845ad3d59bd9653f200f220920489ca2b5937696c31929181900390910190a35050565b826121ee3382613167565b1515612241576040805160e560020a62461bcd0281526020600482015260236024820152600080516020613f42833981519152604482015260e960020a623332b902606482015290519081900360840190fd5b611cb38484846131be565b60008181526011602090815260409182902080548351601f60026000196101006001861615020190931692909204918201849004840281018401909452808452606093928301828280156122e15780601f106122b6576101008083540402835291602001916122e1565b820191906000526020600020905b8154815290600101906020018083116122c457829003601f168201915b50505050509050919050565b816122f83382613167565b151561234b576040805160e560020a62461bcd0281526020600482015260236024820152600080516020613f42833981519152604482015260e960020a623332b902606482015290519081900360840190fd5b6000838152601260205260408082208054600160a060020a031916600160a060020a0386169081179091559051909185917f9d9dd80a56a16f715df6eb40b771e24ff8cbea6eed9de28473ce0f28fe5602a99190a3505050565b6123b08260006122ed565b611cb3848484846135f2565b6000908152600f602052604090205490565b600080836040518082805190602001908083835b602083106124015780518252601f1990920191602091820191016123e2565b51815160209384036101000a6000190180199092169116179052920194855250604051938490038101842086519094879450925082918401908083835b6020831061245d5780518252601f19909201916020918201910161243e565b51815160209384036101000a600019018019909216911617905292019485525060405193849003019092205460ff1695945050505050565b6040805190810160405280600781526020017f4f776e61626c65000000000000000000000000000000000000000000000000008152506040805190810160405280600581526020017f312e392e3000000000000000000000000000000000000000000000000000000081525061252e826040805190810160405280600b8152602001600080516020613f22833981519152815250612aec565b6125388282612aec565b600c8054600160a060020a031916600160a060020a038516179055604080518181528351918101919091528251600080516020613f028339815191529184918491908190602080830191606084019187019080838360005b838110156125a8578181015183820152602001612590565b50505050905090810190601f1680156125d55780820380516001836020036101000a031916815260200191505b50838103825284518152845160209182019186019080838360005b838110156126085781810151838201526020016125f0565b50505050905090810190601f1680156126355780820380516001836020036101000a031916815260200191505b5094505050505060405180910390a160016000836040518082805190602001908083835b602083106126785780518252601f199092019160209182019101612659565b51815160209384036101000a6000190180199092169116179052920194855250604051938490038101842086519094879450925082918401908083835b602083106126d45780518252601f1990920191602091820191016126b5565b51815160209384036101000a60001901801990921691161790529201948552506040519384900381018420805460ff19169515159590951790945550508351600192600092869290918291908401908083835b602083106127465780518252601f199092019160209182019101612727565b51815160209384036101000a60001901801990921691161790529201948552506040805194859003820185208582018252600b808752600080516020613f2283398151915293870193845291519095945092508291908083835b602083106127bf5780518252601f1990920191602091820191016127a0565b51815160209384036101000a60001901801990921691161790529201948552506040519384900301909220805460ff1916931515939093179092555050505050565b606061280c82611961565b151561281757600080fd5b6000828152600b602090815260409182902080548351601f6002600019610100600186161502019093169290920491820184900484028101840190945280845290918301828280156122e15780601f106122b6576101008083540402835291602001916122e1565b600d54600090600160a060020a0316331461290a576040805160e560020a62461bcd02815260206004820152602960248201527f4f6e6c79207468652072656769737472792063616e206d616b6520746869732060448201527f6f7065726174696f6e0000000000000000000000000000000000000000000000606482015290519081900360840190fd5b6129448484848080601f01602080910402602001604051908101604052809392919081815260200183838082843750613672945050505050565b949350505050565b60005b82518110156115cd5761297b8585858481518110151561296b57fe5b90602001906020020151856123a5565b60010161294f565b600160a060020a03918216600090815260046020908152604080832093909416825291909152205460ff1690565b600c54600160a060020a031633146129c857600080fd5b600160a060020a03811615156129dd57600080fd5b600c54604051600160a060020a038084169216907f8be0079c531659141344cd1fd0a4f28419497f9722a3daafe3b4186f6b6457e090600090a3600c8054600160a060020a031916600160a060020a0392909216919091179055565b6000908152600e602052604090205490565b6000612a56826137c3565b80612a9e5750604080517f6765744d657461646174612875696e743235362900000000000000000000000081529051908190036014019020600160e060020a03198381169116145b80610c885750604080517f76657269667946696e6765727072696e742875696e743235362c62797465732981529051908190036020019020600160e060020a03198381169116149050919050565b612af682826123ce565b15612b71576040805160e560020a62461bcd02815260206004820152603260248201527f52657175657374656420746172676574206d6967726174696f6e20494420686160448201527f7320616c7265616479206265656e2072756e0000000000000000000000000000606482015290519081900360840190fd5b5050565b6000610c888261355a565b612b8982611961565b1515612bdf576040805160e560020a62461bcd02815260206004820152601a60248201527f546865204573746174652069642073686f756c64206578697374000000000000604482015290519081900360640190fd5b6000818152600f602052604090205415612c69576040805160e560020a62461bcd02815260206004820152602660248201527f546865204c414e4420697320616c7265616479206f776e656420627920616e2060448201527f4573746174650000000000000000000000000000000000000000000000000000606482015290519081900360840190fd5b600d54604080517f6352211e0000000000000000000000000000000000000000000000000000000081526004810184905290513092600160a060020a031691636352211e9160248083019260209291908290030181600087803b158015612ccf57600080fd5b505af1158015612ce3573d6000803e3d6000fd5b505050506040513d6020811015612cf957600080fd5b5051600160a060020a031614612d7f576040805160e560020a62461bcd02815260206004820152602960248201527f5468652045737461746552656769737472792063616e6e6f74206d616e61676560448201527f20746865204c414e440000000000000000000000000000000000000000000000606482015290519081900360840190fd5b6000828152600e60209081526040808320805460018101825581855283852001859055848452600f835281842086905585845254601083528184208585529092528083209190915551829184917fff0e52667d53255667dc777a00af81038a4646367b0d73d8ee8540ca5b0c9a2e9190a35050565b80612dff3382613167565b1515612e52576040805160e560020a62461bcd0281526020600482015260236024820152600080516020613f42833981519152604482015260e960020a623332b902606482015290519081900360840190fd5b600160a060020a0384161515612e6757600080fd5b600160a060020a0383161515612e7c57600080fd5b612e868483613838565b612e90848361389a565b612e9a83836139d3565b8183600160a060020a031685600160a060020a03167fddf252ad1be2c89b69c2b068fc378daa952ba7f163c4a11628f55a4df523b3ef60405160405180910390a450505050565b60008084612eef3382613508565b1515612f45576040805160e560020a62461bcd02815260206004820152601160248201527f556e617574686f72697a65642075736572000000000000000000000000000000604482015290519081900360640190fd5b6000858152600f60205260409020548614612fd0576040805160e560020a62461bcd02815260206004820152602260248201527f546865204c414e44206973206e6f742070617274206f6620746865204573746160448201527f7465000000000000000000000000000000000000000000000000000000000000606482015290519081900360840190fd5b600d54604080517f7efd9112000000000000000000000000000000000000000000000000000000008152600481018890528151600160a060020a0390931692637efd9112926024808401939192918290030181600087803b15801561303457600080fd5b505af1158015613048573d6000803e3d6000fd5b505050506040513d604081101561305e57600080fd5b508051602091820151600d546040517fd4dd159400000000000000000000000000000000000000000000000000000000815260048101848152602482018490526060604483019081528a5160648401528a51959950939750600160a060020a039092169463d4dd159494899489948c949093919260849091019185019080838360005b838110156130f95781810151838201526020016130e1565b50505050905090810190601f1680156131265780820380516001836020036101000a031916815260200191505b50945050505050600060405180830381600087803b15801561314757600080fd5b505af115801561315b573d6000803e3d6000fd5b50505050505050505050565b60008061317383611cb9565b905080600160a060020a031684600160a060020a031614806131ae575083600160a060020a03166131a38461112c565b600160a060020a0316145b8061294457506129448185612983565b600080808080600160a060020a038616151561324a576040805160e560020a62461bcd02815260206004820152602d60248201527f596f752063616e206e6f74207472616e73666572204c414e4420746f20616e2060448201527f656d707479206164647265737300000000000000000000000000000000000000606482015290519081900360840190fd5b6000888152600e60209081526040808320601083528184208b855292839052922054919650945015156132ed576040805160e560020a62461bcd02815260206004820152602260248201527f546865204c414e44206973206e6f742070617274206f6620746865204573746160448201527f7465000000000000000000000000000000000000000000000000000000000000606482015290519081900360840190fd5b845461330090600163ffffffff613a1c16565b60008881526020869052604090205490935061332390600163ffffffff613a1c16565b9150848381548110151561333357fe5b600091825260209091200154905061335282600163ffffffff613a2e16565b6000828152602086905260409020558454819086908490811061337157fe5b600091825260209091200155845485908490811061338b57fe5b6000918252602082200155826133a18682613ec7565b50600087815260208581526040808320839055600f909152808220829055600d5481517f42842e0e000000000000000000000000000000000000000000000000000000008152306004820152600160a060020a038a81166024830152604482018c9052925192909116926342842e0e9260648084019382900301818387803b15801561342c57600080fd5b505af1158015613440573d6000803e3d6000fd5b5050505085600160a060020a031687897f7932eb5ab0d4d4d172776074ee15d13d708465ff5476902ed15a4965434fcab160405160405180910390a45050505050505050565b806134913382613167565b15156134e4576040805160e560020a62461bcd0281526020600482015260236024820152600080516020613f42833981519152604482015260e960020a623332b902606482015290519081900360840190fd5b611cb384848460206040519081016040528060008152506123a5565b6000903b1190565b60006135148383613167565b80611ce9575050600090815260126020526040902054600160a060020a0391821691161490565b6000828152601160209081526040909120825161146792840190613e49565b600080805b83518110156135eb5761357981600863ffffffff613a3b16565b848281518110151561358757fe5b60209101015160029190910a7f0100000000000000000000000000000000000000000000000000000000000000918290049091027fff000000000000000000000000000000000000000000000000000000000000001604919091179060010161355f565b5092915050565b816135fd3382613167565b1515613650576040805160e560020a62461bcd0281526020600482015260236024820152600080516020613f42833981519152604482015260e960020a623332b902606482015290519081900360840190fd5b61365b858585611451565b61366785858585613a64565b15156115cd57600080fd5b600080600160a060020a03841615156136fa576040805160e560020a62461bcd028152602060048201526024808201527f596f752063616e206e6f74206d696e7420746f20616e20656d7074792061646460448201527f7265737300000000000000000000000000000000000000000000000000000000606482015290519081900360840190fd5b613702613bcc565b905061370e8482613bec565b613718818461353b565b8084600160a060020a03167fd66691e9db811aef0bc0900328bd314b23f1f2285d5cb6d4baa4d959b3645a3c856040518080602001828103825283818151815260200191508051906020019080838360005b8381101561378257818101518382015260200161376a565b50505050905090810190601f1680156137af5780820380516001836020036101000a031916815260200191505b509250505060405180910390a39392505050565b60006137ce82613c3b565b806138025750600160e060020a031982167f780e9d6300000000000000000000000000000000000000000000000000000000145b80610c88575050600160e060020a0319167f5b5e139f000000000000000000000000000000000000000000000000000000001490565b81600160a060020a031661384b82611cb9565b600160a060020a03161461385e57600080fd5b600081815260026020526040902054600160a060020a031615612b715760009081526002602052604090208054600160a060020a031916905550565b60008060006138a98585613cb0565b600084815260086020908152604080832054600160a060020a03891684526007909252909120549093506138e490600163ffffffff613a1c16565b600160a060020a03861660009081526007602052604090208054919350908390811061390c57fe5b90600052602060002001549050806007600087600160a060020a0316600160a060020a031681526020019081526020016000208481548110151561394c57fe5b6000918252602080832090910192909255600160a060020a038716815260079091526040812080548490811061397e57fe5b6000918252602080832090910192909255600160a060020a03871681526007909152604090208054906139b5906000198301613ec7565b50600093845260086020526040808520859055908452909220555050565b60006139df8383613d39565b50600160a060020a039091166000908152600760209081526040808320805460018101825590845282842081018590559383526008909152902055565b600082821115613a2857fe5b50900390565b81810182811015610c8857fe5b6000821515613a4c57506000610c88565b50818102818382811515613a5c57fe5b0414610c8857fe5b600080613a7985600160a060020a0316613500565b1515613a8857600191506112c8565b6040517f150b7a020000000000000000000000000000000000000000000000000000000081523360048201818152600160a060020a03898116602485015260448401889052608060648501908152875160848601528751918a169463150b7a0294938c938b938b93909160a490910190602085019080838360005b83811015613b1b578181015183820152602001613b03565b50505050905090810190601f168015613b485780820380516001836020036101000a031916815260200191505b5095505050505050602060405180830381600087803b158015613b6a57600080fd5b505af1158015613b7e573d6000803e3d6000fd5b505050506040513d6020811015613b9457600080fd5b5051600160e060020a0319167f150b7a0200000000000000000000000000000000000000000000000000000000149695505050505050565b6000613be76001613bdb61144b565b9063ffffffff613a2e16565b905090565b613bf68282613dbc565b600980546000838152600a60205260408120829055600182018355919091527f6e1540171b6c0c960b71a7020d9f60077f6af931a8bbf590da0223dacf75c7af015550565b6000613c4682613e17565b80613c7a5750600160e060020a031982167f80ac58cd00000000000000000000000000000000000000000000000000000000145b80610c88575050600160e060020a0319167f4f558e79000000000000000000000000000000000000000000000000000000001490565b81600160a060020a0316613cc382611cb9565b600160a060020a031614613cd657600080fd5b600160a060020a038216600090815260036020526040902054613d0090600163ffffffff613a1c16565b600160a060020a039092166000908152600360209081526040808320949094559181526001909152208054600160a060020a0319169055565b600081815260016020526040902054600160a060020a031615613d5b57600080fd5b60008181526001602081815260408084208054600160a060020a031916600160a060020a0388169081179091558452600390915290912054613d9c91613a2e565b600160a060020a0390921660009081526003602052604090209190915550565b600160a060020a0382161515613dd157600080fd5b613ddb82826139d3565b6040518190600160a060020a038416906000907fddf252ad1be2c89b69c2b068fc378daa952ba7f163c4a11628f55a4df523b3ef908290a45050565b600160e060020a031981167f01ffc9a70000000000000000000000000000000000000000000000000000000014919050565b828054600181600116156101000203166002900490600052602060002090601f016020900481019282601f10613e8a57805160ff1916838001178555613eb7565b82800160010185558215613eb7579182015b82811115613eb7578251825591602001919060010190613e9c565b50613ec3929150613ee7565b5090565b815481835581811115611467576000838152602090206114679181019083015b610d2291905b80821115613ec35760008155600101613eed5600dd117a11c22118c9dee4b5a67ce578bc44529dce21ee0ccc439588fbb9fb4ea3696e697469616c697a65640000000000000000000000000000000000000000004f6e6c79206f776e6572206f72206f70657261746f722063616e207472616e73a165627a7a72305820b015c9f53c8138915bb8a1f08e83227075c683036bb19e1c3a86a71855c772ae0029",
  "source": "pragma solidity ^0.4.23;\n\n\nimport \"openzeppelin-zos/contracts/token/ERC721/ERC721Token.sol\";\nimport \"openzeppelin-zos/contracts/token/ERC721/ERC721Receiver.sol\";\nimport \"openzeppelin-zos/contracts/ownership/Ownable.sol\";\nimport \"zos-lib/contracts/migrations/Migratable.sol\";\n\nimport \"./IEstateRegistry.sol\";\nimport \"./EstateStorage.sol\";\n\n\n/**\n * @title ERC721 registry of every minted Estate and their owned LANDs\n * @dev Usings we are inheriting and depending on:\n * From ERC721Token:\n *   - using SafeMath for uint256;\n *   - using AddressUtils for address;\n */\n// solium-disable-next-line max-len\ncontract EstateRegistry is Migratable, IEstateRegistry, ERC721Token, ERC721Receiver, Ownable, EstateStorage {\n  modifier canTransfer(uint256 estateId) {\n    require(isApprovedOrOwner(msg.sender, estateId), \"Only owner or operator can transfer\");\n    _;\n  }\n\n  modifier onlyRegistry() {\n    require(msg.sender == address(registry), \"Only the registry can make this operation\");\n    _;\n  }\n\n  modifier onlyUpdateAuthorized(uint256 estateId) {\n    require(_isUpdateAuthorized(msg.sender, estateId), \"Unauthorized user\");\n    _;\n  }\n\n  /**\n   * @dev Mint a new Estate with some metadata\n   * @param to The address that will own the minted token\n   * @param metadata Set an initial metadata\n   * @return An uint256 representing the new token id\n   */\n  function mint(address to, string metadata) external onlyRegistry returns (uint256) {\n    return _mintEstate(to, metadata);\n  }\n\n  /**\n   * @notice Transfer a LAND owned by an Estate to a new owner\n   * @param estateId Current owner of the token\n   * @param landId LAND to be transfered\n   * @param destinatary New owner\n   */\n  function transferLand(\n    uint256 estateId,\n    uint256 landId,\n    address destinatary\n  )\n    external\n    canTransfer(estateId)\n  {\n    return _transferLand(estateId, landId, destinatary);\n  }\n\n  /**\n   * @notice Transfer many tokens owned by an Estate to a new owner\n   * @param estateId Current owner of the token\n   * @param landIds LANDs to be transfered\n   * @param destinatary New owner\n   */\n  function transferManyLands(\n    uint256 estateId,\n    uint256[] landIds,\n    address destinatary\n  )\n    external\n    canTransfer(estateId)\n  {\n    uint length = landIds.length;\n    for (uint i = 0; i < length; i++) {\n      _transferLand(estateId, landIds[i], destinatary);\n    }\n  }\n\n  /**\n   * @notice Get the Estate id for a given LAND id\n   * @dev This information also lives on estateLandIds,\n   *   but it being a mapping you need to know the Estate id beforehand.\n   * @param landId LAND to search\n   * @return The corresponding Estate id\n   */\n  function getLandEstateId(uint256 landId) external view returns (uint256) {\n    return landIdEstate[landId];\n  }\n\n  function setLANDRegistry(address _registry) external onlyOwner {\n    require(_registry.isContract(), \"The LAND registry address should be a contract\");\n    require(_registry != 0, \"The LAND registry address should be valid\");\n    registry = LANDRegistry(_registry);\n    emit SetLANDRegistry(registry);\n  }\n\n  function ping() external {\n    registry.ping();\n  }\n\n  /**\n   * @notice Return the amount of tokens for a given Estate\n   * @param estateId Estate id to search\n   * @return Tokens length\n   */\n  function getEstateSize(uint256 estateId) external view returns (uint256) {\n    return estateLandIds[estateId].length;\n  }\n\n  /**\n   * @notice Update the metadata of an Estate\n   * @dev Reverts if the Estate does not exist or the user is not authorized\n   * @param estateId Estate id to update\n   * @param metadata string metadata\n   */\n  function updateMetadata(\n    uint256 estateId,\n    string metadata\n  )\n    external\n    onlyUpdateAuthorized(estateId)\n  {\n    _updateMetadata(estateId, metadata);\n\n    emit Update(\n      estateId,\n      ownerOf(estateId),\n      msg.sender,\n      metadata\n    );\n  }\n\n  function getMetadata(uint256 estateId) external view returns (string) {\n    return estateData[estateId];\n  }\n\n  function isUpdateAuthorized(address operator, uint256 estateId) external view returns (bool) {\n    return _isUpdateAuthorized(operator, estateId);\n  }\n\n  function setUpdateOperator(uint256 estateId, address operator) public canTransfer(estateId) {\n    updateOperator[estateId] = operator;\n    emit UpdateOperator(estateId, operator);\n  }\n\n  function initialize(\n    string _name,\n    string _symbol,\n    address _registry\n  )\n    public\n    isInitializer(\"EstateRegistry\", \"0.0.2\")\n  {\n    require(_registry != 0, \"The registry should be a valid address\");\n\n    ERC721Token.initialize(_name, _symbol);\n    Ownable.initialize(msg.sender);\n    registry = LANDRegistry(_registry);\n  }\n\n  /**\n   * @notice Handle the receipt of an NFT\n   * @dev The ERC721 smart contract calls this function on the recipient\n   * after a `safetransfer`. This function MAY throw to revert and reject the\n   * transfer. Return of other than the magic value MUST result in the\n   * transaction being reverted.\n   * Note: the contract address is always the message sender.\n   * @param _operator The address which called `safeTransferFrom` function\n   * @param _from The address which previously owned the token\n   * @param _tokenId The NFT identifier which is being transferred\n   * @param _data Additional data with no specified format\n   * @return `bytes4(keccak256(\"onERC721Received(address,address,uint256,bytes)\"))`\n   */\n  function onERC721Received(\n    address _operator,\n    address _from,\n    uint256 _tokenId,\n    bytes _data\n  )\n    public\n    onlyRegistry\n    returns (bytes4)\n  {\n    uint256 estateId = _bytesToUint(_data);\n    _pushLandId(estateId, _tokenId);\n    return ERC721_RECEIVED;\n  }\n\n  /**\n   * @dev Creates a checksum of the contents of the Estate\n   * @param estateId the estateId to be verified\n   */\n  function getFingerprint(uint256 estateId)\n    public\n    view\n    returns (bytes32 result)\n  {\n    result = keccak256(abi.encodePacked(\"estateId\", estateId));\n\n    uint256 length = estateLandIds[estateId].length;\n    for (uint i = 0; i < length; i++) {\n      result ^= keccak256(abi.encodePacked(estateLandIds[estateId][i]));\n    }\n    return result;\n  }\n\n  /**\n   * @dev Verifies a checksum of the contents of the Estate\n   * @param estateId the estateid to be verified\n   * @param fingerprint the user provided identification of the Estate contents\n   */\n  function verifyFingerprint(uint256 estateId, bytes fingerprint) public view returns (bool) {\n    return getFingerprint(estateId) == _bytesToBytes32(fingerprint);\n  }\n\n  /**\n   * @dev Safely transfers the ownership of multiple Estate IDs to another address\n   * @dev Delegates to safeTransferFrom for each transfer\n   * @dev Requires the msg sender to be the owner, approved, or operator\n   * @param from current owner of the token\n   * @param to address to receive the ownership of the given token ID\n   * @param estateIds uint256 array of IDs to be transferred\n  */\n  function safeTransferManyFrom(address from, address to, uint256[] estateIds) public {\n    safeTransferManyFrom(\n      from,\n      to,\n      estateIds,\n      \"\"\n    );\n  }\n\n  /**\n   * @dev Safely transfers the ownership of multiple Estate IDs to another address\n   * @dev Delegates to safeTransferFrom for each transfer\n   * @dev Requires the msg sender to be the owner, approved, or operator\n   * @param from current owner of the token\n   * @param to address to receive the ownership of the given token ID\n   * @param estateIds uint256 array of IDs to be transferred\n   * @param data bytes data to send along with a safe transfer check\n  */\n  function safeTransferManyFrom(\n    address from,\n    address to,\n    uint256[] estateIds,\n    bytes data\n  )\n    public\n  {\n    for (uint i = 0; i < estateIds.length; i++) {\n      safeTransferFrom(\n        from,\n        to,\n        estateIds[i],\n        data\n      );\n    }\n  }\n\n  /**\n   * @dev update LAND data owned by an Estate\n   * @param estateId Estate\n   * @param landId LAND to be updated\n   * @param data string metadata\n   */\n  function updateLandData(uint256 estateId, uint256 landId, string data) public {\n    _updateLandData(estateId, landId, data);\n  }\n\n  /**\n   * @dev update LANDs data owned by an Estate\n   * @param estateId Estate id\n   * @param landIds LANDs to be updated\n   * @param data string metadata\n   */\n  function updateManyLandData(uint256 estateId, uint256[] landIds, string data) public {\n    uint length = landIds.length;\n    for (uint i = 0; i < length; i++) {\n      _updateLandData(estateId, landIds[i], data);\n    }\n  }\n\n  function transferFrom(address _from, address _to, uint256 _tokenId) \n  public \n  {\n    setUpdateOperator(_tokenId, address(0));\n    super.transferFrom(_from, _to, _tokenId);\n  }\n\n  function safeTransferFrom(address _from, address _to, uint256 _tokenId) \n  public \n  {\n    setUpdateOperator(_tokenId, address(0));\n    super.safeTransferFrom(_from, _to, _tokenId);\n  }\n\n  function safeTransferFrom(\n    address _from,\n    address _to,\n    uint256 _tokenId,\n    bytes _data\n  )\n  public\n  {\n    setUpdateOperator(_tokenId, address(0));\n    super.safeTransferFrom(\n      _from, \n      _to,\n      _tokenId, \n      _data\n    );\n  }\n\n  // check the supported interfaces via ERC165\n  function _supportsInterface(bytes4 _interfaceId) internal view returns (bool) {\n    // solium-disable-next-line operator-whitespace\n    return super._supportsInterface(_interfaceId) ||\n      _interfaceId == InterfaceId_GetMetadata ||\n      _interfaceId == InterfaceId_VerifyFingerprint;\n  }\n\n  /**\n   * @dev Internal function to mint a new Estate with some metadata\n   * @param to The address that will own the minted token\n   * @param metadata Set an initial metadata\n   * @return An uint256 representing the new token id\n   */\n  function _mintEstate(address to, string metadata) internal returns (uint256) {\n    require(to != address(0), \"You can not mint to an empty address\");\n    uint256 estateId = _getNewEstateId();\n    _mint(to, estateId);\n    _updateMetadata(estateId, metadata);\n    emit CreateEstate(to, estateId, metadata);\n    return estateId;\n  }\n\n  /**\n   * @dev Internal function to update an Estate metadata\n   * @dev Does not require the Estate to exist, for a public interface use `updateMetadata`\n   * @param estateId Estate id to update\n   * @param metadata string metadata\n   */\n  function _updateMetadata(uint256 estateId, string metadata) internal {\n    estateData[estateId] = metadata;\n  }\n\n  /**\n   * @notice Return a new unique id\n   * @dev It uses totalSupply to determine the next id\n   * @return uint256 Representing the new Estate id\n   */\n  function _getNewEstateId() internal view returns (uint256) {\n    return totalSupply().add(1);\n  }\n\n  /**\n   * @dev Appends a new LAND id to an Estate updating all related storage\n   * @param estateId Estate where the LAND should go\n   * @param landId Transfered LAND\n   */\n  function _pushLandId(uint256 estateId, uint256 landId) internal {\n    require(exists(estateId), \"The Estate id should exist\");\n    require(landIdEstate[landId] == 0, \"The LAND is already owned by an Estate\");\n    require(registry.ownerOf(landId) == address(this), \"The EstateRegistry cannot manage the LAND\");\n\n    estateLandIds[estateId].push(landId);\n\n    landIdEstate[landId] = estateId;\n\n    estateLandIndex[estateId][landId] = estateLandIds[estateId].length;\n\n    emit AddLand(estateId, landId);\n  }\n\n  /**\n   * @dev Removes a LAND from an Estate and transfers it to a new owner\n   * @param estateId Current owner of the LAND\n   * @param landId LAND to be transfered\n   * @param destinatary New owner\n   */\n  function _transferLand(\n    uint256 estateId,\n    uint256 landId,\n    address destinatary\n  )\n    internal\n  {\n    require(destinatary != address(0), \"You can not transfer LAND to an empty address\");\n\n    uint256[] storage landIds = estateLandIds[estateId];\n    mapping(uint256 => uint256) landIndex = estateLandIndex[estateId];\n\n    /**\n     * Using 1-based indexing to be able to make this check\n     */\n    require(landIndex[landId] != 0, \"The LAND is not part of the Estate\");\n\n    uint lastIndexInArray = landIds.length.sub(1);\n\n    /**\n     * Get the landIndex of this token in the landIds list\n     */\n    uint indexInArray = landIndex[landId].sub(1);\n\n    /**\n     * Get the landId at the end of the landIds list\n     */\n    uint tempTokenId = landIds[lastIndexInArray];\n\n    /**\n     * Store the last token in the position previously occupied by landId\n     */\n    landIndex[tempTokenId] = indexInArray.add(1);\n    landIds[indexInArray] = tempTokenId;\n\n    /**\n     * Delete the landIds[last element]\n     */\n    delete landIds[lastIndexInArray];\n    landIds.length = lastIndexInArray;\n\n    /**\n     * Drop this landId from both the landIndex and landId list\n     */\n    landIndex[landId] = 0;\n\n    /**\n     * Drop this landId Estate\n     */\n    landIdEstate[landId] = 0;\n\n    registry.safeTransferFrom(this, destinatary, landId);\n\n    emit RemoveLand(estateId, landId, destinatary);\n  }\n\n  function _isUpdateAuthorized(address operator, uint256 estateId) internal view returns (bool) {\n    return isApprovedOrOwner(operator, estateId) || updateOperator[estateId] == operator;\n  }\n\n  function _bytesToUint(bytes b) internal pure returns (uint256) {\n    return uint256(_bytesToBytes32(b));\n  }\n\n  function _bytesToBytes32(bytes b) internal pure returns (bytes32) {\n    bytes32 out;\n\n    for (uint i = 0; i < b.length; i++) {\n      out |= bytes32(b[i] & 0xFF) >> i.mul(8);\n    }\n\n    return out;\n  }\n\n  function _updateLandData(\n    uint256 estateId,\n    uint256 landId,\n    string data\n  )\n    internal\n    onlyUpdateAuthorized(estateId)\n  {\n    require(landIdEstate[landId] == estateId, \"The LAND is not part of the Estate\");\n    int x;\n    int y;\n    (x, y) = registry.decodeTokenId(landId);\n    registry.updateLandData(x, y, data);\n  }\n}\n",
  "sourcePath": "/home/cmarcelo/git/TasitSDK/packages/tasit-contracts/decentraland/land/contracts/estate/EstateRegistry.sol",
  "compiler": {
    "name": "solc",
    "version": "0.4.24+commit.e67f0147.Emscripten.clang"
  },
  "schemaVersion": "2.0.1",
  "updatedAt": "2019-02-04T15:42:53.746Z"
}