{
  "contractName": "LANDProxy",
  "abi": [
    {
      "constant": true,
      "inputs": [],
      "name": "proxyOwner",
      "outputs": [
        {
          "name": "",
          "type": "address"
        }
      ],
      "payable": false,
      "stateMutability": "view",
      "type": "function"
    },
    {
      "constant": true,
      "inputs": [
        {
          "name": "",
          "type": "address"
        }
      ],
      "name": "latestPing",
      "outputs": [
        {
          "name": "",
          "type": "uint256"
        }
      ],
      "payable": false,
      "stateMutability": "view",
      "type": "function"
    },
    {
      "constant": true,
      "inputs": [
        {
          "name": "",
          "type": "address"
        }
      ],
      "name": "authorizedDeploy",
      "outputs": [
        {
          "name": "",
          "type": "bool"
        }
      ],
      "payable": false,
      "stateMutability": "view",
      "type": "function"
    },
    {
      "constant": true,
      "inputs": [],
      "name": "currentContract",
      "outputs": [
        {
          "name": "",
          "type": "address"
        }
      ],
      "payable": false,
      "stateMutability": "view",
      "type": "function"
    },
    {
      "constant": true,
      "inputs": [],
      "name": "owner",
      "outputs": [
        {
          "name": "",
          "type": "address"
        }
      ],
      "payable": false,
      "stateMutability": "view",
      "type": "function"
    },
    {
      "constant": true,
      "inputs": [
        {
          "name": "",
          "type": "uint256"
        }
      ],
      "name": "updateOperator",
      "outputs": [
        {
          "name": "",
          "type": "address"
        }
      ],
      "payable": false,
      "stateMutability": "view",
      "type": "function"
    },
    {
      "constant": false,
      "inputs": [
        {
          "name": "newContract",
          "type": "address"
        },
        {
          "name": "data",
          "type": "bytes"
        }
      ],
      "name": "upgrade",
      "outputs": [],
      "payable": false,
      "stateMutability": "nonpayable",
      "type": "function"
    },
    {
      "constant": true,
      "inputs": [],
      "name": "estateRegistry",
      "outputs": [
        {
          "name": "",
          "type": "address"
        }
      ],
      "payable": false,
      "stateMutability": "view",
      "type": "function"
    },
    {
      "constant": false,
      "inputs": [
        {
          "name": "_newOwner",
          "type": "address"
        }
      ],
      "name": "transferOwnership",
      "outputs": [],
      "payable": false,
      "stateMutability": "nonpayable",
      "type": "function"
    },
    {
      "payable": true,
      "stateMutability": "payable",
      "type": "fallback"
    },
    {
      "anonymous": false,
      "inputs": [
        {
          "indexed": true,
          "name": "newContract",
          "type": "address"
        },
        {
          "indexed": false,
          "name": "initializedWith",
          "type": "bytes"
        }
      ],
      "name": "Upgrade",
      "type": "event"
    },
    {
      "anonymous": false,
      "inputs": [
        {
          "indexed": false,
          "name": "_prevOwner",
          "type": "address"
        },
        {
          "indexed": false,
          "name": "_newOwner",
          "type": "address"
        }
      ],
      "name": "OwnerUpdate",
      "type": "event"
    }
  ],
  "bytecode": "0x6080604052600280546001805433600160a060020a03199182168117909255918216811790911617905561079a806100386000396000f3006080604052600436106100985763ffffffff7c0100000000000000000000000000000000000000000000000000000000600035041663025313a281146101695780631e3759011461019a57806329ffab3b146101cd578063721d7d8e146102025780638da5cb5b146102175780639d40b8501461022c578063c987336c14610244578063e387d31a146102ab578063f2fde38b146102c0575b600054600160a060020a03161515610120576040805160e560020a62461bcd02815260206004820152602d60248201527f49662061707020636f646520686173206e6f74206265656e207365742079657460448201527f2c20646f206e6f742063616c6c00000000000000000000000000000000000000606482015290519081900360840190fd5b6000805460408051602036601f810182900482028301820190935282825261016794600160a060020a039094169391929081908401838280828437506102e1945050505050565b005b34801561017557600080fd5b5061017e61038e565b60408051600160a060020a039092168252519081900360200190f35b3480156101a657600080fd5b506101bb600160a060020a036004351661039d565b60408051918252519081900360200190f35b3480156101d957600080fd5b506101ee600160a060020a03600435166103af565b604080519115158252519081900360200190f35b34801561020e57600080fd5b5061017e6103c4565b34801561022357600080fd5b5061017e6103d3565b34801561023857600080fd5b5061017e6004356103e2565b34801561025057600080fd5b5060408051602060046024803582810135601f8101859004850286018501909652858552610167958335600160a060020a03169536956044949193909101919081908401838280828437509497506103fd9650505050505050565b3480156102b757600080fd5b5061017e610600565b3480156102cc57600080fd5b50610167600160a060020a036004351661060f565b6102ea82610766565b1515610366576040805160e560020a62461bcd02815260206004820152602960248201527f5468652064657374696e6174696f6e2061646472657373206973206e6f74206160448201527f20636f6e74726163740000000000000000000000000000000000000000000000606482015290519081900360840190fd5b600080825160208401856127105a03f43d604051816000823e82801561038a578282f35b8282fd5b600154600160a060020a031681565b600d6020526000908152604090205481565b600e6020526000908152604090205460ff1681565b600054600160a060020a031681565b600254600160a060020a031681565b600f60205260009081526040902054600160a060020a031681565b600154600160a060020a0316331461045f576040805160e560020a62461bcd02815260206004820152601160248201527f556e617574686f72697a65642075736572000000000000000000000000000000604482015290519081900360640190fd5b6000805473ffffffffffffffffffffffffffffffffffffffff1916600160a060020a0384161781556040517f439fab91000000000000000000000000000000000000000000000000000000008152602060048201818152845160248401528451309463439fab91948794849360449092019290860191908190849084905b838110156104f55781810151838201526020016104dd565b50505050905090810190601f1680156105225780820380516001836020036101000a031916815260200191505b5092505050600060405180830381600087803b15801561054157600080fd5b505af1158015610555573d6000803e3d6000fd5b5050505081600160a060020a03167fe74baeef5988edac1159d9177ca52f0f3d68f624a1996f77467eb3ebfb316537826040518080602001828103825283818151815260200191508051906020019080838360005b838110156105c25781810151838201526020016105aa565b50505050905090810190601f1680156105ef5780820380516001836020036101000a031916815260200191505b509250505060405180910390a25050565b601054600160a060020a031681565b600154600160a060020a03163314610671576040805160e560020a62461bcd02815260206004820152601160248201527f556e617574686f72697a65642075736572000000000000000000000000000000604482015290519081900360640190fd5b600160a060020a03811615156106d1576040805160e560020a62461bcd02815260206004820152600d60248201527f456d707479206164647265737300000000000000000000000000000000000000604482015290519081900360640190fd5b600154600160a060020a0382811691161415610737576040805160e560020a62461bcd02815260206004820152601260248201527f416c726561647920617574686f72697a65640000000000000000000000000000604482015290519081900360640190fd5b6001805473ffffffffffffffffffffffffffffffffffffffff1916600160a060020a0392909216919091179055565b6000903b11905600a165627a7a72305820837c873bbbbaeed15d04c805fb27bc24c847d1ed93c92f2a611db1aab7dec0580029",
  "source": "pragma solidity ^0.4.18;\n\nimport \"../Storage.sol\";\nimport \"../upgradable/Proxy.sol\";\n\n\ncontract LANDProxy is Storage, Proxy {\n}\n",
  "sourcePath": "/home/cmarcelo/git/TasitSDK/packages/tasit-contracts/decentraland/land/contracts/upgradable/LANDProxy.sol",
  "compiler": {
    "name": "solc",
    "version": "0.4.24+commit.e67f0147.Emscripten.clang"
  },
  "schemaVersion": "2.0.1",
  "updatedAt": "2019-01-29T18:28:01.365Z"
}