{
  "contractName": "SimpleStorage",
  "abi": [
    {
      "inputs": [
        {
          "name": "value",
          "type": "string"
        }
      ],
      "payable": false,
      "stateMutability": "nonpayable",
      "type": "constructor"
    },
    {
      "anonymous": false,
      "inputs": [
        {
          "indexed": true,
          "name": "author",
          "type": "address"
        },
        {
          "indexed": false,
          "name": "oldValue",
          "type": "string"
        },
        {
          "indexed": false,
          "name": "newValue",
          "type": "string"
        }
      ],
      "name": "ValueChanged",
      "type": "event"
    },
    {
      "constant": true,
      "inputs": [],
      "name": "getValue",
      "outputs": [
        {
          "name": "",
          "type": "string"
        }
      ],
      "payable": false,
      "stateMutability": "view",
      "type": "function"
    },
    {
      "constant": false,
      "inputs": [
        {
          "name": "value",
          "type": "string"
        }
      ],
      "name": "setValue",
      "outputs": [],
      "payable": false,
      "stateMutability": "nonpayable",
      "type": "function"
    }
  ],
  "bytecode": "0x608060405234801561001057600080fd5b50604051610657380380610657833981018060405281019080805182019291905050503373ffffffffffffffffffffffffffffffffffffffff167fe826f71647b8486f2bae59832124c70792fba044036720a54ec8dacdd5df4fcb6000836040518080602001806020018381038352858181546001816001161561010002031660029004815260200191508054600181600116156101000203166002900480156100fb5780601f106100d0576101008083540402835291602001916100fb565b820191906000526020600020905b8154815290600101906020018083116100de57829003601f168201915b5050838103825284818151815260200191508051906020019080838360005b8381101561013557808201518184015260208101905061011a565b50505050905090810190601f1680156101625780820380516001836020036101000a031916815260200191505b5094505050505060405180910390a2806000908051906020019061018792919061018e565b5050610233565b828054600181600116156101000203166002900490600052602060002090601f016020900481019282601f106101cf57805160ff19168380011785556101fd565b828001600101855582156101fd579182015b828111156101fc5782518255916020019190600101906101e1565b5b50905061020a919061020e565b5090565b61023091905b8082111561022c576000816000905550600101610214565b5090565b90565b610415806102426000396000f30060806040526004361061004c576000357c0100000000000000000000000000000000000000000000000000000000900463ffffffff168063209652551461005157806393a09352146100e1575b600080fd5b34801561005d57600080fd5b5061006661014a565b6040518080602001828103825283818151815260200191508051906020019080838360005b838110156100a657808201518184015260208101905061008b565b50505050905090810190601f1680156100d35780820380516001836020036101000a031916815260200191505b509250505060405180910390f35b3480156100ed57600080fd5b50610148600480360381019080803590602001908201803590602001908080601f01602080910402602001604051908101604052809392919081815260200183838082843782019150505050505091929192905050506101ec565b005b606060008054600181600116156101000203166002900480601f0160208091040260200160405190810160405280929190818152602001828054600181600116156101000203166002900480156101e25780601f106101b7576101008083540402835291602001916101e2565b820191906000526020600020905b8154815290600101906020018083116101c557829003601f168201915b5050505050905090565b3373ffffffffffffffffffffffffffffffffffffffff167fe826f71647b8486f2bae59832124c70792fba044036720a54ec8dacdd5df4fcb6000836040518080602001806020018381038352858181546001816001161561010002031660029004815260200191508054600181600116156101000203166002900480156102b45780601f10610289576101008083540402835291602001916102b4565b820191906000526020600020905b81548152906001019060200180831161029757829003601f168201915b5050838103825284818151815260200191508051906020019080838360005b838110156102ee5780820151818401526020810190506102d3565b50505050905090810190601f16801561031b5780820380516001836020036101000a031916815260200191505b5094505050505060405180910390a28060009080519060200190610340929190610344565b5050565b828054600181600116156101000203166002900490600052602060002090601f016020900481019282601f1061038557805160ff19168380011785556103b3565b828001600101855582156103b3579182015b828111156103b2578251825591602001919060010190610397565b5b5090506103c091906103c4565b5090565b6103e691905b808211156103e25760008160009055506001016103ca565b5090565b905600a165627a7a723058209d9ffaf7b37d1d3b10a68b24db9117a9048610cb3f8fa9810faf335d1d224a2b0029",
  "source": "pragma solidity ^0.4.24;\n\ncontract SimpleStorage {\n  event ValueChanged(address indexed author, string oldValue, string newValue);\n\n  string _value;\n\n  constructor(string value) public {\n    emit ValueChanged(msg.sender, _value, value);\n    _value = value;\n  }\n\n  function getValue() public view returns(string) {\n    return _value;\n  }\n\n  function setValue(string value) public {\n    emit ValueChanged(msg.sender, _value, value);\n    _value = value;\n  }\n}\n",
  "sourcePath": "/home/cmarcelo/git/TasitSDK/packages/tasit-contracts/contracts/SimpleStorage.sol",
  "compiler": {
    "name": "solc",
    "version": "0.4.24+commit.e67f0147.Emscripten.clang"
  },
  "schemaVersion": "2.0.1",
  "updatedAt": "2018-12-06T19:30:54.563Z"
}