{
  "contractName": "SampleContract",
  "abi": [
    {
      "inputs": [
        {
          "name": "value",
          "type": "string"
        }
      ],
      "payable": false,
      "stateMutability": "nonpayable",
      "type": "constructor",
      "signature": "constructor"
    },
    {
      "anonymous": false,
      "inputs": [
        {
          "indexed": true,
          "name": "author",
          "type": "address"
        },
        {
          "indexed": false,
          "name": "oldValue",
          "type": "string"
        },
        {
          "indexed": false,
          "name": "newValue",
          "type": "string"
        }
      ],
      "name": "ValueChanged",
      "type": "event",
      "signature": "0xe826f71647b8486f2bae59832124c70792fba044036720a54ec8dacdd5df4fcb"
    },
    {
      "anonymous": false,
      "inputs": [
        {
          "indexed": true,
          "name": "author",
          "type": "address"
        },
        {
          "indexed": false,
          "name": "oldValue",
          "type": "string"
        }
      ],
      "name": "ValueRemoved",
      "type": "event",
      "signature": "0xdc3a6c5e946bc46b06902f73c3c9a5689c461217698b8d53d4bbaa124a6519a2"
    },
    {
      "constant": true,
      "inputs": [],
      "name": "getValue",
      "outputs": [
        {
          "name": "",
          "type": "string"
        }
      ],
      "payable": false,
      "stateMutability": "view",
      "type": "function",
      "signature": "0x20965255"
    },
    {
      "constant": false,
      "inputs": [
        {
          "name": "value",
          "type": "string"
        }
      ],
      "name": "setValue",
      "outputs": [],
      "payable": false,
      "stateMutability": "nonpayable",
      "type": "function",
      "signature": "0x93a09352"
    },
    {
      "constant": false,
      "inputs": [],
      "name": "removeValue",
      "outputs": [],
      "payable": false,
      "stateMutability": "nonpayable",
      "type": "function",
      "signature": "0x2f5739dd"
    },
    {
      "constant": true,
      "inputs": [],
      "name": "revertRead",
      "outputs": [
        {
          "name": "",
          "type": "bool"
        }
      ],
      "payable": false,
      "stateMutability": "pure",
      "type": "function",
      "signature": "0x9f558709"
    },
    {
      "constant": false,
      "inputs": [
        {
          "name": "value",
          "type": "string"
        }
      ],
      "name": "revertWrite",
      "outputs": [],
      "payable": false,
      "stateMutability": "nonpayable",
      "type": "function",
      "signature": "0xeb5c2318"
    }
  ],
  "bytecode": "0x608060405234801561001057600080fd5b5060405161096e38038061096e8339810180604052602081101561003357600080fd5b81019080805164010000000081111561004b57600080fd5b8281019050602081018481111561006157600080fd5b815185600182028301116401000000008211171561007e57600080fd5b50509291905050503373ffffffffffffffffffffffffffffffffffffffff167fe826f71647b8486f2bae59832124c70792fba044036720a54ec8dacdd5df4fcb60008360405180806020018060200183810383528581815460018160011615610100020316600290048152602001915080546001816001161561010002031660029004801561014e5780601f106101235761010080835404028352916020019161014e565b820191906000526020600020905b81548152906001019060200180831161013157829003601f168201915b5050838103825284818151815260200191508051906020019080838360005b8381101561018857808201518184015260208101905061016d565b50505050905090810190601f1680156101b55780820380516001836020036101000a031916815260200191505b5094505050505060405180910390a280600090805190602001906101da9291906101e1565b5050610286565b828054600181600116156101000203166002900490600052602060002090601f016020900481019282601f1061022257805160ff1916838001178555610250565b82800160010185558215610250579182015b8281111561024f578251825591602001919060010190610234565b5b50905061025d9190610261565b5090565b61028391905b8082111561027f576000816000905550600101610267565b5090565b90565b6106d9806102956000396000f3fe60806040526004361061006d576000357c0100000000000000000000000000000000000000000000000000000000900463ffffffff16806320965255146100725780632f5739dd1461010257806393a09352146101195780639f558709146101e1578063eb5c231814610210575b600080fd5b34801561007e57600080fd5b506100876102d8565b6040518080602001828103825283818151815260200191508051906020019080838360005b838110156100c75780820151818401526020810190506100ac565b50505050905090810190601f1680156100f45780820380516001836020036101000a031916815260200191505b509250505060405180910390f35b34801561010e57600080fd5b5061011761037a565b005b34801561012557600080fd5b506101df6004803603602081101561013c57600080fd5b810190808035906020019064010000000081111561015957600080fd5b82018360208201111561016b57600080fd5b8035906020019184600183028401116401000000008311171561018d57600080fd5b91908080601f016020809104026020016040519081016040528093929190818152602001838380828437600081840152601f19601f820116905080830192505050505050509192919290505050610474565b005b3480156101ed57600080fd5b506101f66105cc565b604051808215151515815260200191505060405180910390f35b34801561021c57600080fd5b506102d66004803603602081101561023357600080fd5b810190808035906020019064010000000081111561025057600080fd5b82018360208201111561026257600080fd5b8035906020019184600183028401116401000000008311171561028457600080fd5b91908080601f016020809104026020016040519081016040528093929190818152602001838380828437600081840152601f19601f8201169050808301925050505050505091929192905050506105e1565b005b606060008054600181600116156101000203166002900480601f0160208091040260200160405190810160405280929190818152602001828054600181600116156101000203166002900480156103705780601f1061034557610100808354040283529160200191610370565b820191906000526020600020905b81548152906001019060200180831161035357829003601f168201915b5050505050905090565b3373ffffffffffffffffffffffffffffffffffffffff167fdc3a6c5e946bc46b06902f73c3c9a5689c461217698b8d53d4bbaa124a6519a26000604051808060200182810382528381815460018160011615610100020316600290048152602001915080546001816001161561010002031660029004801561043d5780601f106104125761010080835404028352916020019161043d565b820191906000526020600020905b81548152906001019060200180831161042057829003601f168201915b50509250505060405180910390a2602060405190810160405280600081525060009080519060200190610471929190610608565b50565b3373ffffffffffffffffffffffffffffffffffffffff167fe826f71647b8486f2bae59832124c70792fba044036720a54ec8dacdd5df4fcb60008360405180806020018060200183810383528581815460018160011615610100020316600290048152602001915080546001816001161561010002031660029004801561053c5780601f106105115761010080835404028352916020019161053c565b820191906000526020600020905b81548152906001019060200180831161051f57829003601f168201915b5050838103825284818151815260200191508051906020019080838360005b8381101561057657808201518184015260208101905061055b565b50505050905090810190601f1680156105a35780820380516001836020036101000a031916815260200191505b5094505050505060405180910390a280600090805190602001906105c8929190610608565b5050565b60008015156105da57600080fd5b6000905090565b600015156105ee57600080fd5b8060009080519060200190610604929190610608565b5050565b828054600181600116156101000203166002900490600052602060002090601f016020900481019282601f1061064957805160ff1916838001178555610677565b82800160010185558215610677579182015b8281111561067657825182559160200191906001019061065b565b5b5090506106849190610688565b5090565b6106aa91905b808211156106a657600081600090555060010161068e565b5090565b9056fea165627a7a72305820a1fb7c86b2528220d6082d73719a25007704d97d0f121794b30250bc243189cc0029",
  "source": "pragma solidity ^0.5.0;\n\ncontract SampleContract {\n  event ValueChanged(address indexed author, string oldValue, string newValue);\n  event ValueRemoved(address indexed author, string oldValue);\n\n  string _value;\n\n  constructor(string memory value) public {\n    emit ValueChanged(msg.sender, _value, value);\n    _value = value;\n  }\n\n  function getValue() public view returns(string memory) {\n    return _value;\n  }\n\n  function setValue(string memory value) public {\n    emit ValueChanged(msg.sender, _value, value);\n    _value = value;\n  }\n\n  function removeValue() public {\n    emit ValueRemoved(msg.sender, _value);\n    _value = \"\";\n  }\n\n  function revertRead() public pure returns(bool) {\n    require(false);\n    return false;\n  }\n\n  function revertWrite(string memory value) public {\n    require(false);\n    _value = value;\n  }\n\n}\n",
  "sourcePath": "/home/cmarcelo/git/TasitSDK/packages/tasit-contracts/contracts/SampleContract.sol",
  "compiler": {
    "name": "solc",
    "version": "0.5.0+commit.1d4f565a.Emscripten.clang"
  },
  "schemaVersion": "3.0.1",
  "updatedAt": "2019-01-25T00:31:40.065Z",
  "devdoc": {
    "methods": {}
  },
  "userdoc": {
    "methods": {}
  }
}