{
  "contractName": "SimpleStorage",
  "abi": [
    {
      "inputs": [
        {
          "name": "value",
          "type": "string"
        }
      ],
      "payable": false,
      "stateMutability": "nonpayable",
      "type": "constructor",
      "signature": "constructor"
    },
    {
      "anonymous": false,
      "inputs": [
        {
          "indexed": true,
          "name": "author",
          "type": "address"
        },
        {
          "indexed": false,
          "name": "oldValue",
          "type": "string"
        },
        {
          "indexed": false,
          "name": "newValue",
          "type": "string"
        }
      ],
      "name": "ValueChanged",
      "type": "event",
      "signature": "0xe826f71647b8486f2bae59832124c70792fba044036720a54ec8dacdd5df4fcb"
    },
    {
      "anonymous": false,
      "inputs": [
        {
          "indexed": true,
          "name": "author",
          "type": "address"
        },
        {
          "indexed": false,
          "name": "oldValue",
          "type": "string"
        }
      ],
      "name": "ValueRemoved",
      "type": "event",
      "signature": "0xdc3a6c5e946bc46b06902f73c3c9a5689c461217698b8d53d4bbaa124a6519a2"
    },
    {
      "constant": true,
      "inputs": [],
      "name": "getValue",
      "outputs": [
        {
          "name": "",
          "type": "string"
        }
      ],
      "payable": false,
      "stateMutability": "view",
      "type": "function",
      "signature": "0x20965255"
    },
    {
      "constant": false,
      "inputs": [
        {
          "name": "value",
          "type": "string"
        }
      ],
      "name": "setValue",
      "outputs": [],
      "payable": false,
      "stateMutability": "nonpayable",
      "type": "function",
      "signature": "0x93a09352"
    },
    {
      "constant": false,
      "inputs": [],
      "name": "removeValue",
      "outputs": [],
      "payable": false,
      "stateMutability": "nonpayable",
      "type": "function",
      "signature": "0x2f5739dd"
    }
  ],
  "bytecode": "0x608060405234801561001057600080fd5b506040516108253803806108258339810180604052602081101561003357600080fd5b81019080805164010000000081111561004b57600080fd5b8281019050602081018481111561006157600080fd5b815185600182028301116401000000008211171561007e57600080fd5b50509291905050503373ffffffffffffffffffffffffffffffffffffffff167fe826f71647b8486f2bae59832124c70792fba044036720a54ec8dacdd5df4fcb60008360405180806020018060200183810383528581815460018160011615610100020316600290048152602001915080546001816001161561010002031660029004801561014e5780601f106101235761010080835404028352916020019161014e565b820191906000526020600020905b81548152906001019060200180831161013157829003601f168201915b5050838103825284818151815260200191508051906020019080838360005b8381101561018857808201518184015260208101905061016d565b50505050905090810190601f1680156101b55780820380516001836020036101000a031916815260200191505b5094505050505060405180910390a280600090805190602001906101da9291906101e1565b5050610286565b828054600181600116156101000203166002900490600052602060002090601f016020900481019282601f1061022257805160ff1916838001178555610250565b82800160010185558215610250579182015b8281111561024f578251825591602001919060010190610234565b5b50905061025d9190610261565b5090565b61028391905b8082111561027f576000816000905550600101610267565b5090565b90565b610590806102956000396000f3fe608060405260043610610057576000357c0100000000000000000000000000000000000000000000000000000000900463ffffffff168063209652551461005c5780632f5739dd146100ec57806393a0935214610103575b600080fd5b34801561006857600080fd5b506100716101cb565b6040518080602001828103825283818151815260200191508051906020019080838360005b838110156100b1578082015181840152602081019050610096565b50505050905090810190601f1680156100de5780820380516001836020036101000a031916815260200191505b509250505060405180910390f35b3480156100f857600080fd5b5061010161026d565b005b34801561010f57600080fd5b506101c96004803603602081101561012657600080fd5b810190808035906020019064010000000081111561014357600080fd5b82018360208201111561015557600080fd5b8035906020019184600183028401116401000000008311171561017757600080fd5b91908080601f016020809104026020016040519081016040528093929190818152602001838380828437600081840152601f19601f820116905080830192505050505050509192919290505050610367565b005b606060008054600181600116156101000203166002900480601f0160208091040260200160405190810160405280929190818152602001828054600181600116156101000203166002900480156102635780601f1061023857610100808354040283529160200191610263565b820191906000526020600020905b81548152906001019060200180831161024657829003601f168201915b5050505050905090565b3373ffffffffffffffffffffffffffffffffffffffff167fdc3a6c5e946bc46b06902f73c3c9a5689c461217698b8d53d4bbaa124a6519a2600060405180806020018281038252838181546001816001161561010002031660029004815260200191508054600181600116156101000203166002900480156103305780601f1061030557610100808354040283529160200191610330565b820191906000526020600020905b81548152906001019060200180831161031357829003601f168201915b50509250505060405180910390a26020604051908101604052806000815250600090805190602001906103649291906104bf565b50565b3373ffffffffffffffffffffffffffffffffffffffff167fe826f71647b8486f2bae59832124c70792fba044036720a54ec8dacdd5df4fcb60008360405180806020018060200183810383528581815460018160011615610100020316600290048152602001915080546001816001161561010002031660029004801561042f5780601f106104045761010080835404028352916020019161042f565b820191906000526020600020905b81548152906001019060200180831161041257829003601f168201915b5050838103825284818151815260200191508051906020019080838360005b8381101561046957808201518184015260208101905061044e565b50505050905090810190601f1680156104965780820380516001836020036101000a031916815260200191505b5094505050505060405180910390a280600090805190602001906104bb9291906104bf565b5050565b828054600181600116156101000203166002900490600052602060002090601f016020900481019282601f1061050057805160ff191683800117855561052e565b8280016001018555821561052e579182015b8281111561052d578251825591602001919060010190610512565b5b50905061053b919061053f565b5090565b61056191905b8082111561055d576000816000905550600101610545565b5090565b9056fea165627a7a72305820a96aa18f7fbed26e40966bf3e9baa9849e6eef70cd5de10177eb381c8f5842f50029",
  "source": "pragma solidity ^0.5.0;\n\ncontract SimpleStorage {\n  event ValueChanged(address indexed author, string oldValue, string newValue);\n  event ValueRemoved(address indexed author, string oldValue);\n\n  string _value;\n\n  constructor(string memory value) public {\n    emit ValueChanged(msg.sender, _value, value);\n    _value = value;\n  }\n\n  function getValue() public view returns(string memory) {\n    return _value;\n  }\n\n  function setValue(string memory value) public {\n    emit ValueChanged(msg.sender, _value, value);\n    _value = value;\n  }\n\n  function removeValue() public {\n    emit ValueRemoved(msg.sender, _value);\n    _value = \"\";\n  }\n}\n",
  "sourcePath": "/home/cmarcelo/git/TasitSDK/packages/tasit-contracts/contracts/SimpleStorage.sol",
  "compiler": {
    "name": "solc",
    "version": "0.5.0+commit.1d4f565a.Emscripten.clang"
  },
  "schemaVersion": "3.0.0",
  "updatedAt": "2019-01-10T22:19:39.707Z",
  "devdoc": {
    "methods": {}
  },
  "userdoc": {
    "methods": {}
  }
}